:020000040800F2
:10000000B8040020A9010008CB1B0008FB1A000857
:10001000C91B0008270A000845210008000000004D
:10002000000000000000000000000000EF1B0008BE
:10003000290A000800000000ED1B0008F11B000861
:10004000C3010008C3010008C3010008C301000880
:10005000C3010008C3010008C3010008C301000870
:10006000C3010008C3010008C3010008C301000860
:10007000C3010008C3010008C3010008C301000850
:10008000C3010008C3010008C3010008C301000840
:10009000C3010008C3010008C3010008C301000830
:1000A000C3010008C3010008C3010008C301000820
:1000B000C3010008C3010008C3010008C301000810
:1000C000C3010008C3010008C3010008C301000800
:1000D000C3010008C3010008C3010008C3010008F0
:1000E000C3010008C3010008C3010008C3010008E0
:1000F000C3010008C3010008C3010008C3010008D0
:10010000C30100080000000000000000C301000857
:10011000B51C0008C3010008C3010008C3010008A2
:10012000C3010008C3010008C3010008C30100089F
:10013000C3010008C3010008000000000000000027
:10014000C3010008C3010008C3010008000000004B
:10015000000000000000000000000000000000009F
:10016000C3010008C3010008C3010008C30100085F
:10017000C3010008C3010008C3010008C30100084F
:10018000C3010008C30100080000000000000000D7
:10019000C3010008DFF80CD000F0F0F80048004779
:1001A000E1210008B80400200648804706480047BF
:1001B000FEE7FEE7FEE7FEE7FEE7FEE7FEE7FEE717
:1001C000FEE7FEE74D1C000895010008202A04DB2D
:1001D000203A21FA02F00021704721FA02F3D040C0
:1001E000C2F120029140084319467047D2B201E0A3
:1001F00000F8012B491EFBD270470022F6E710B52C
:1002000013460A4604461946FFF7F0FF204610BD84
:1002100000F0004230F000400AD0C10D01F56071DD
:10022000C0F3160042EA0151C2084007114370476B
:1002300000200146704701F0004330B421F0004136
:1002400050EA010206D00A0DA2F56072C1F3130153
:10025000002A02DC30BC00207047440F44EAC1048D
:10026000C100E01830BC00EBC25000F04FB80000F5
:100270000FB4002300B589B00CA900910B996FF061
:100280000042CB601E4B06931E4B07930423CDE91F
:1002900001321D4A089202466B46002000F01AF90E
:1002A00009B05DF814FB70B586B006464FF0FF301C
:1002B0000091CDE90101002015460C46049032461C
:1002C000694604A8FFF7D4FF02460498211825B117
:1002D00008B1084600E020462860049800280DD0A8
:1002E000002A02DD0098884208D0081B0094CDE95E
:1002F00001043246694604A8FFF7BAFF06B070BD94
:100300000D0700082B070008A10300080029A8BF5B
:100310007047401C490008BF20F00100704710B42E
:10032000B0FA80FC00FA0CF050EA010404BF10BCE3
:10033000704749B1CCF1200421FA04F411FA0CF110
:1003400018BF012121430843A3EB0C01CB1D4FEA49
:1003500000614FEA102042BF002010BC704700EB44
:10036000C35010440029A4BF10BC7047401C490072
:1003700008BF20F0010010BC70470000064C074D7C
:1003800006E0E06840F0010394E807009847103465
:10039000AC42F6D3FFF702FF2824000848240008E7
:1003A000C0B24FF4F05100F0D1B900002DE9FF4F79
:1003B000087883B09946FF2805D0491C2D2804D021
:1003C0000024002008E000200BE00124F9E700EB06
:1003D000800003EB4000491C0B78FF2BF7D104B1E0
:1003E000404200230293147819461D462D2C01D05B
:1003F0002B2C04D1521C2D2C13D000240294AA467D
:100400001478FF2C0FD00A25A3FB057801FB05818A
:100410004FF0000C03FB0C11521CE3194AEB0101D5
:10042000EEE70124EAE7814453EA010002D019F51E
:10043000C87F06DA03980021C0E9001107B0BDE8C3
:10044000F08F0025AE4E2F46DFF8B882184600F038
:1004500072FACDE90001B9F1000002DAC9F1000435
:1004600000E004460023A74A1AEB030B42EB045AB0
:1004700012E0E00707D02A4633463846414600F0EE
:1004800079F9074688462A4633461046194600F051
:1004900071F905460E466410002CEAD1DDE9000131
:1004A000B9F1000F5A46534606DA00F0D5F93A463C
:1004B000434600F0D1F905E000F05CF93A464346C6
:1004C00000F058F9029A0AB181F00041039AC2E99A
:1004D0000001B3E72DE9FF4F1F468DB0D7E9014674
:1004E0004FF0FF382E2045464FF000090B90B969B8
:1004F0006D1C0E988847396A824688470028F6D1D5
:10050000BAF1FF3F0AD024F4D064002E11DDBAF115
:100510002B0F08D0BAF12D0F0BD102E0404611B0DD
:100520008DE744F48064B9696D1C0E988847824653
:10053000761E6946600501D52D2000E02B208DF840
:10054000000001F1010B0DF1200809E0B9696D1CF3
:100550000E98884782460F9844F40074761E056012
:10056000002E02DDBAF1300FF0D00B998A453ED152
:1005700044F0800406E00F99681CA9F1010944F4D5
:1005800000740860B9696D1C761E0E988847824613
:100590003028F0D02BE00B998A4505D1200603D4F2
:1005A00044F08004761E18E0504601F005FE08B3C2
:1005B0000DF11301761E44F400748B4508D2AAF1A4
:1005C00030000BF8010B200607D5A9F1010003E06C
:1005D000200602D409F101008146A00502D50F9939
:1005E000681C0860B9696D1C0E9888478246002E09
:1005F000D1DC53E0002E51DDBAF1650F02D0BAF123
:10060000450F4BD1A00549D5B9696D1C24F4407440
:10061000761E0E9888478246002E0CDD2B2804D0CB
:10062000BAF12D0F07D144F48074B9696D1C0E988E
:1006300088478246761EE00501D52D2100E02B215A
:1006400008F8011BCDF82C8021E00DF12901761E60
:1006500044F4007488450CD2AAF1300010F0FF0079
:1006600088F8000002D10B99884509D908F10108E2
:1006700006E0E00501D5244801E042F20F70814612
:10068000B9696D1C0E98884782460F980560002E48
:1006900004DD504601F090FD0028D6D1F9690E988E
:1006A0008847FF208BF8000088F8000000200690A3
:1006B00007904B466A4608A906A8FFF777FEA005F3
:1006C00002D46FF001002AE714F0240F0AD0E007EB
:1006D00014D1DDE906123868031D3B600068C0E9EB
:1006E00000120BE0DDE90601FFF7A5FD0146E0077A
:1006F00004D13868021D3A600068016028460EE7A0
:10070000000014400000F03FF1D8FFFF426842B102
:10071000016811F8013B23B1521EC0E900121846CE
:1007200070470121C160881E704742685AB1C36892
:10073000016843B983688B4205D0491E521CC0E949
:100740000012002070474FF0FF3070477F2801D91A
:10075000002208E0064A02EB5002C007127800D1DE
:10076000120902F00F02012090400840704700007B
:10077000E82300082DE9FE4F81EA030404F0004459
:1007800021F0004100944FF0000B23F0004350EAA9
:1007900001045ED052EA03045BD0C3F30A54C1F3F0
:1007A0000A552C44A4F2F3340194A0FB0254C1F383
:1007B000130141F48011C3F3130343F4801301FBCD
:1007C000024400FB034E840A970A44EA815447EA34
:1007D0008357A4FB076802958D0A05FB07854FEA3E
:1007E000932C04FB0C542705029D4FEA065847EA58
:1007F0001637B5EB08056EEB070C870E920E47EA2D
:10080000811742EA8312A7FB0201B6EB0B0164EBEE
:1008100000042B0D43EA0C335E1844EB1C50DA46FF
:100820005146E7FB0201C5F313044FEA0B3343EAD9
:1008300014534FEA0432019C43EA0603A4F10C046A
:100840000294009CCDE900B400F090F803B0BDE83C
:10085000F08F00200146F9E72DE9F04D81EA03040D
:1008600004F0004B21F0004514464FF0000A23F03D
:10087000004150EA050220D054EA01021DD0C5F320
:100880000A570246C5F31303C1F31300C1F30A5616
:1008900040F4801543F48013A7EB0608101BD646DE
:1008A00008F2FD3873EB050002D308F1010801E0FE
:1008B00092185B41B8F1000F03DA00200146BDE851
:1008C000F08D00204FF48011064684460EE0171B81
:1008D00073EB050705D3121B63EB050306434CEAD4
:1008E000010C49084FEA300092185B4150EA0107B9
:1008F000EDD152EA030012D082EA040083EA050136
:10090000084305D0101BAB4106D20122002306E0AC
:1009100000224FF0004302E06FF0010253101AEB87
:1009200006004CEB085110EB0A0041EB0B01BDE84F
:10093000F04D00F00CB80EB540F2334202920022A6
:10094000CDE90022134600F011F803B000BD10B548
:10095000141E73F1000408DA401C41F100019218E2
:100960005B411A4301D120F0010010BD2DE9F04D8B
:1009700092469B4611B1B1FA81F202E0B0FA80F2E0
:100980002032904600F040F804460F4640EA0A0044
:1009900041EA0B0153465A46084313D0114653EA25
:1009A000010019D0C8F140025046FFF70FFC054680
:1009B0000E4650465946424600F026F8084305D0F8
:1009C000012004E020463946BDE8F08D00200543B3
:1009D00046EAE0762C4337430A986305E40AA0EB25
:1009E00008000022FD0A44EA47540A3002D50020DC
:1009F0000146E9E7010510196941DDE908450019DB
:100A00006941BDE8F04DA2E7202A04DB203A00FA54
:100A100002F1002070479140C2F1200320FA03F355
:100A2000194390407047FEE7704710B590F82110C9
:100A30000024022903D004218163012418E0016805
:100A40000A6822F00E020A6001680A6822F00102B8
:100A50000A6090F84020C36B012101FA02F25A604B
:100A600080F82110002180F82010416B01B18847E7
:100A7000204610BD70B5044600F0FAF80546601C2B
:100A800002D004480078044400F0F2F8401BA04271
:100A9000FAD370BD300000202DE9F84FDFF8A0B187
:100AA000002301274FF0030A4FF00F090BF1040E4A
:100AB000BEE000BF07FA03F63440220072D04C6853
:100AC000022C01D0122C12D1DC0800EB840CDCF8D3
:100AD00020405D07ED0E09FA05F824EA0804D1F874
:100AE000108008FA05F848EA0408CCF82080D0F80D
:100AF00000805D0091F804C00AFA05F40CF0030CC4
:100B000028EA04080CFA05FC4CEA080CC0F800C0FE
:100B1000D1F804C0BCF1010F08D0BCF1020F05D020
:100B2000BCF1110F02D0BCF1120F16D1D0F808C0E1
:100B3000D1F80C802CEA040C08FA05F848EA0C08F5
:100B4000C0F80880D0F804C02CEA060C0E79C6F371
:100B500000169E4046EA0C064660C668A6438C68AE
:100B6000AC403443C4604C68E40060D5354CA569A2
:100B700045F00105A561A46923F0030504F0010413
:100B80000094314C2E19B4689D074FEA157C09FA80
:100B90000CF5AC43B0F1904F05D02C4DA84204D1D8
:100BA00001251CE043E0002519E0294DA84201D1B0
:100BB000022514E0274DA84201D103250FE0264D60
:100BC000A84201D104250AE0244DA84201D10525FF
:100BD00005E0234DA84201D1062500E0072505FACE
:100BE0000CF52543B560DBF800405D464E68944344
:100BF000F60300D514432C60DEF8004075464E68BD
:100C00009443B60300D514432C600D4D08352C6871
:100C10004E689443F60200D514432C60084D0C3501
:100C20002C684E689443B60200D514432C605B1CBC
:100C30000A681446DA407FF43DAFBDE8F88F000043
:100C40000004014000100240000001400004004880
:100C500000080048000C004800100048001400483C
:100C6000001800480AB18161704781627047000036
:100C70000148806870470000300000200248816809
:100C8000027811448160704730000020074810B599
:100C9000016841F010010160032000F06BF80020B2
:100CA00000F006F800F024F8002010BD00200240FB
:100CB00070B50D4D04464FF47A712878B1FBF0F011
:100CC0000A490968B1FBF0F000F07AFD48B9102C30
:100CD00007D200222146501E00F02CF800206C6044
:100CE00070BD012070BD0000300000203C000020DD
:100CF000094808B5816941F001018161816901F00C
:100D000001010091C16941F08051C161C06900F0E9
:100D10008050009008BD00000010024000F01F024B
:100D2000012191404009800000F1E020C0F800114D
:100D300070470000F0B40E4B1B680C46C3F302234F
:100D4000C3F10705042D00D90425191D072901D277
:100D5000002300E0DB1E012606FA05F1491E2140B2
:100D600099409E40761E16403143F0BC00F02EBFE5
:100D70000CED00E0064900F0070208684FF6FF039B
:100D8000184040EA0220034A104308607047000000
:100D90000CED00E00000FA052DE9F84F044600686C
:100DA0009F4DC0036FD5E8690026C00008D4E869EC
:100DB00040F08050E861E869012600F08050009022
:100DC00098480168C90512D40168804641F48071D1
:100DD0000160FFF74DFF074605E000BFFFF748FF42
:100DE000C01B642835D8D8F80000C005F6D5286A9D
:100DF00010F4407053D0A18801F4407181424ED06C
:100E0000286A4FF4803191FAA1F2B2FA82F2970087
:100E1000854A4FF00108174420F44070C7F8008459
:100E200091FAA1F1B1FA81F102EB81010023C1F83D
:100E300000342862C00732D0FFF71AFF074641F29C
:100E4000883A4FF0020907E0FFF712FFC11B514536
:100E500002D90320BDE8F88F99FAA9F1B1FA81F11E
:100E600041F040024846B8EB521F01D12A680CE01D
:100E700090FAA0F2B2FA82F242F04002B0EB521FB6
:100E800002D12A6A01E015E06A6A99FAA9F0B0FA7B
:100E900080F000F01F0008FA00F10A42D4D0286A5E
:100EA000616820F44070084328621EB1E86920F0B0
:100EB0008050E8612078C00705D0286BA16820F039
:100EC0000300084328632078800705D5286BE16874
:100ED00020F44030084328632078400705D5286B6C
:100EE000216920F44020084328632078800605D536
:100EF000286BE16920F01000084328632068800314
:100F000005D56868616D20F480000843686020782A
:100F1000400605D5286B216A20F02000084328638D
:100F20002068400305D5286B616A20F04000084323
:100F300028632078000705D5286B616920F44010EC
:100F4000084328632078C00605D5286BA16920F4E2
:100F50004000084328632088800505D56868216B18
:100F600020F40000084368602078000605D5E86A90
:100F7000A16A20F4F8700843E8622088C00505D50E
:100F8000E86AE16A20F478500843E8622088C004E7
:100F900005D5286B616B20F4807008432863208896
:100FA000800405D5286B216C20F400700843286369
:100FB0002068C00205D5286BA16B20F08070084323
:100FC00028632068800205D5286BE16B20F0007053
:100FD000084328632068400205D5286B616C20F423
:100FE0008060084328632068000205D5286BA16C47
:100FF00020F40060084328632068C00105D5286BF1
:10100000E16C20F40050084328632068800105D576
:10101000286B216D20F4004008432863002019E765
:101020000010024000700040000042422DE9F047ED
:101030000F46050069D04A4E306800F00700B842FC
:1010400009D2306820F0070038433060306800F083
:101050000700B84259D12878424C800705D560680E
:10106000A96820F0F000084360602878C0073DD0F0
:101070006968012001290DD0022923D05FF0020305
:1010800093FAA3F2B2FA82F242F02002520904D09B
:10109000226803E04FF40033F2E7626A93FAA3F3A5
:1010A000B3FA83F303F01F03984002422DD0606827
:1010B00020F0030008436060FFF7DAFD804641F24C
:1010C00088390CE04FF00073DAE700BFFFF7D0FD7E
:1010D000A0EB0801494502D90320BDE8F08760680C
:1010E000696800F00C00B0EB810FEFD1306800F0C0
:1010F0000700B8420BD9306820F007003843306051
:10110000306800F00700B84201D00120E5E72878F8
:10111000400705D56068E96820F4E0600843606036
:101120002878000706D56068296920F4605040EAF5
:10113000C100606000F04CF86168F02292FAA2F2FF
:1011400001F0F001B2FA82F2D140074A515CC84086
:10115000064908600020FFF7ABFD0020BDE7000056
:101160000020024000100240D02300083C00002074
:1011700008480949006849684FF4E06292FAA2F20F
:1011800001F4E061B2FA82F2D140044A515CC840F5
:10119000704700003C00002000100240E0230008DF
:1011A00008480949006849684FF4605292FAA2F26F
:1011B00001F46051B2FA82F2D140044A515CC84055
:1011C000704700003C00002000100240E0230008AF
:1011D000124B10B55968124801F00C02042A1CD0B9
:1011E000082A1AD14FF4701494FAA4F401F470127E
:1011F000B4FA84F4E2400B4CDB6AA25C0F2494FA4C
:10120000A4F403F00F03B4FA84F4E340054CC903DB
:101210001034E35CB0FBF3F0504310BD001002400B
:1012200000127A00B02300082DE9F84F04007DD0A9
:101230002078FA4DC0074FF0010637D06868770470
:10124000C0F38100012819D06868C0F3810002282A
:1012500004D16868C0F3C13002280FD06068B0F5CF
:10126000803F24D010B1B0F5A02F2AD0286820F4F8
:1012700080302860286820F480201BE097FAA7F0CF
:10128000B0FA80F040F02000400901D0286800E06A
:10129000686A97FAA7F1B1FA81F101F01F0106FA25
:1012A00001F108424ED060680028C0D04AE02868AA
:1012B00040F480302860606820B3FFF7D9FC804696
:1012C0000AE0286840F480202860F0E7FFF7D0FCAF
:1012D000A0EB0800642873D897FAA7F0B0FA80F062
:1012E00040F02000400901D0286800E0686A97FAC1
:1012F000A7F1B1FA81F101F01F0106FA01F10842EC
:10130000E4D01FE0FFF7B4FC804605E0FFF7B0FC37
:10131000A0EB08006428DED897FAA7F0B0FA80F0B6
:1013200040F02000400902D0286801E0B9E0686A76
:1013300097FAA7F1B1FA81F101F01F0106FA01F164
:101340000842E3D12078DFF8D88280074FF0000A06
:101350004FF002075DD568684FF0F80B10F00C0FE6
:1013600015D06868C0F38100022804D16868C0F312
:10137000C13001280BD0E068A0B396FAA6F0B0FA0D
:1013800080F048F82060FFF773FC814620E097FA70
:10139000A7F0B0FA80F040F02000400901D02868A2
:1013A00000E0686A97FAA7F1B1FA81F101F01F0134
:1013B00006FA01F1084221D0E068012871D11DE050
:1013C00056E100BFFFF754FCA0EB09000228A2D8A9
:1013D00097FAA7F0B0FA80F040F02000400902D060
:1013E000286801E016E0686A97FAA7F1B1FA81F17E
:1013F00001F01F0106FA01F10842E3D028689BFAC8
:10140000ABF22169B2FA82F220F0F8009140084371
:10141000286024E096FAA6F1B1FA81F148F821A0FB
:10142000FFF726FC814605E0FFF722FCA0EB090050
:101430000228CCD897FAA7F0B0FA80F040F020004C
:10144000400901D0286800E0686A97FAA7F1B1FA6C
:1014500081F101F01F0106FA01F10842E4D1207880
:1014600000076AD56069A0B396FAA6F0B0FA80F0DA
:1014700008EB8000C0F88064FFF7FAFB814605E0C6
:10148000FFF7F6FBA0EB09000228A0D897FAA7F017
:10149000B0FA80F040F06000B6EB501F02D128682F
:1014A0000CE073E197FAA7F0B0FA80F040F060002A
:1014B000B7EB501F01D1286A00E0686A97FAA7F1DC
:1014C000B1FA81F101F01F0106FA01F21042D7D002
:1014D00033E0FFE796FAA6F0B0FA80F008EB800060
:1014E000C0F880A4FFF7C4FB814605E0FFF7C0FB0E
:1014F000A0EB090002289CD897FAA7F0B0FA80F078
:1015000040F06000B6EB501F01D128680BE097FA5D
:10151000A7F0B0FA80F040F06000B7EB501F01D1A7
:10152000286A00E0686A97FAA7F1B1FA81F101F040
:101530001F0106FA01F21042D8D12078400774D575
:10154000E8694FF00009C00009D4E86940F0805014
:10155000E861E8694FF0010900F0805000903148DF
:101560000168C90512D4016841F480710160FFF778
:101570007FFB834606E000BFFFF77AFBA0EB0B0082
:10158000642875D827480068C005F5D5A0680128EB
:101590000AD008B1052811D0286A20F0010028627D
:1015A000286A20F0040002E0286A40F00100286266
:1015B000A068C8B3FFF75CFB83460DE0286A40F0E3
:1015C00004002862F0E700BFFFF752FBA0EB0B011D
:1015D00041F2883081424BD897FAA7F0B0FA80F0F8
:1015E00040F04000B6EB501F01D128680BE097FA9D
:1015F000A7F0B0FA80F040F04000B7EB501F01D1E7
:10160000286A00E0686A97FAA7F1B1FA81F101F05F
:101610001F0106FA01F21042D6D035E00010024058
:10162000000042420070004000E034E0FFF720FB81
:10163000834607E0FFF71CFBA0EB0B0141F288306B
:10164000814215D897FAA7F0B0FA80F040F0400038
:10165000B6EB501F01D128680CE097FAA7F0B0FA5A
:1016600080F040F04000B7EB501F02D1286A01E043
:1016700089E0686A97FAA7F1B1FA81F101F01F01D8
:1016800006FA01F21042D5D1B9F1000F03D0E86992
:1016900020F08050E861A06980B36968C1F38101DE
:1016A000022973D04FF080714F000228524609D0B2
:1016B00091FAA1F0B0FA80F048F82020FFF7D8FAAC
:1016C000044664E091FAA1F0B0FA80F08A46C1467F
:1016D00048F82020FFF7CCFA804605E0FFF7C8FA6B
:1016E000A0EB080002284ED897FAA7F0B0FA80F0D5
:1016F00040F02000400902D0286801E05CE0686A00
:1017000097FAA7F1B1FA81F101F01F0106FA01F190
:101710000842E3D1E86A616A20F00F000843E862FA
:10172000D4E907100843696821F47611084368601A
:101730009AFAAAF0B0FA80F049F82060FFF798FA18
:10174000044604E0FFF794FA001B02281BD897FA1E
:10175000A7F0B0FA80F040F02000400901D02868DE
:1017600000E0686A97FAA7F1B1FA81F101F01F0170
:1017700006FA01F10842E5D01EE000BFFFF778FA53
:10178000001B022803D90320BDE8F88F16E097FA62
:10179000A7F0B0FA80F040F02000400901D028689E
:1017A00000E0686A97FAA7F1B1FA81F101F01F0130
:1017B00006FA01F10842E1D10020E5E70120E3E764
:1017C00010B5401EB0F1807F01D3012010BD4FF055
:1017D000E02460610F21601700F0F8F90020A0619B
:1017E00007202061002010BD7047704770B5036866
:1017F0000446D869196810F00F0508D1820606D58D
:101800008A0604D52046BDE8704000F010BB9A68F7
:10181000002D66D002F0010501F490762E4360D0D1
:10182000C60707D0CE0505D501261E62E36E43F03C
:101830000103E366830708D5D30706D02668022391
:101840003362E36E43F00403E366430708D5D2072F
:1018500006D0236804221A62E26E42F00202E266B7
:1018600002070AD501F020022A4306D02368082285
:101870001A62E26E42F00802E266E26E002A29D0A5
:10188000800604D5880602D5204600F0D0FAE06E26
:10189000000703D42068806840061CD5204600F06D
:1018A000ABFA20688168490611D5816821F04001B2
:1018B0008160606E58B11C494163606EFFF7B5F8F6
:1018C000002807D0606E416BBDE870400847204695
:1018D000FFF78BFF70BD2046FFF787FF0020E06613
:1018E00070BDC5020ED552020CD54FF4801018629F
:1018F000202084F8690084F86A002046BDE8704022
:10190000FFF772BF020606D50A0604D52046BDE8D9
:10191000704000F0B3BB4006E2D54806E0D5204653
:10192000BDE8704000F076BAE51D000810B504006F
:1019300003D094F8690010B107E0012010BD002029
:1019400084F86800204600F027F8242084F8690015
:101950002068016821F001010160204600F0A2FA30
:101960000128EBD0606A10B1204600F0A9F9206888
:10197000416821F4904141602068816821F02A018A
:1019800081602068016841F0010101602046BDE8E6
:10199000104000F0F9B9000010B586B004461421DB
:1019A0006846FEF72AFC17492068884227D1164866
:1019B000C16941F40021C161C16901F400210591AF
:1019C000416941F4002141614069694600F4002009
:1019D00005904FF44060009002200190002002909A
:1019E00003200390052004900848FFF755F80022D3
:1019F00011463420FFF79EF93420FFF78FF906B027
:101A000010BD0000004C00400010024000080048DB
:101A10002DE9F84F044690F86A009A4616460D469E
:101A2000202866D1EDB1E6B194F86800012860D0B5
:101A3000012084F868000027E766222084F86A0005
:101A40004C34FFF715F9A6818146E68154F8440C21
:101A50004FF48058FF214C3C404508D1206918B113
:101A60000DE00120BDE8F88F40F2FF100DE07F226D
:101A700018B1B0F1805F05D009E0206950B9A4F831
:101A80005C1004E0206928B13F20A4F85C00B4F8A1
:101A90005C601DE0A4F85C20F9E700BFB4F85A00D0
:101AA000401EA4F85A004B46002220212046CDF8C3
:101AB00000A000F015FB08B10320D3E7A068404563
:101AC00001D1206978B12068808C304005F8010B85
:101AD000B4F85A000028E1D1202084F86A0084F884
:101AE00068700020BEE72068808C304025F8020B2B
:101AF000EEE70220B6E770477047FEE72DE9F041B8
:101B000086B014216846FEF778FB2248416941F40B
:101B100080014161416901F480010591416941F40D
:101B200080214161416901F480210591416941F4BD
:101B300000314161416901F400310591416941F48D
:101B4000002141614069144F00F400204FF4C0555A
:101B50000590002229463846FFF784F84FF0904858
:101B6000002229464046FFF77DF801260024009513
:101B7000CDE90164694638460394FEF78DFF009570
:101B8000CDE90164694640460394FEF785FF06B03F
:101B9000BDE8F081001002400004004809480849EF
:101BA00001604FF416514160002181600C22C16038
:101BB000C0E904128161C16101624162FFF7B6BEF2
:101BC000004C004044000020FEE770470907090E62
:101BD000002806DA00F00F0000F1E02080F8141D64
:101BE000704700F1E02080F800147047704770479C
:101BF000FFF744B810B5A6B0282116A8FEF7FDFAE5
:101C0000142120A8FEF7F9FA58216846FEF7F5FAE4
:101C10000220169001201990102000241A901C9484
:101C200016A8FFF701FB0F20CDE92004229423948E
:101C3000002120A82494FFF7F9F9082005940090CA
:101C40006846FFF7A9F826B010BD000014480168E7
:101C500041F4700101601348016841F00101016025
:101C60004168114A114041600168104A1140016009
:101C7000016821F480210160416821F4FE01416086
:101C8000C16A21F00F01C162016B094A1140016371
:101C9000002181600249C00380390860704700005C
:101CA00088ED00E0001002400CC07FF8FFFFF6FE58
:101CB000CCFC00FF0148FFF799BD00004400002064
:101CC00090F82410C90706D001684A68836A22F494
:101CD00000321A434A6090F82410890706D501683B
:101CE0004A68C36A22F480321A434A6090F824108A
:101CF000490706D501684A68036B22F480221A431B
:101D00004A6090F82410090706D501684A68436BB9
:101D100022F400421A434A6090F82410C90606D5FE
:101D200001688A68836B22F480521A438A6090F8B3
:101D30002410890606D501688A68C36B22F4005214
:101D40001A438A6090F82410490611D501684A6840
:101D5000036C22F480121A434A60016CB1F5801FB3
:101D600006D101684A68436C22F4C0021A434A60F3
:101D700090F82410090606D501684A68806C22F4A0
:101D8000002202434A607047F8B500260446C66642
:101D9000FEF76EFF0546206800686FF07E4700077B
:101DA00008D52B4600224FF400112046009700F082
:101DB00097F960B92068006840070AD52B460022D1
:101DC0004FF480012046009700F08AF908B1032003
:101DD000F8BD202084F8690084F86A0084F86860FF
:101DE0000020F8BD10B5406A0021A0F85A10A0F8F4
:101DF0005210FFF7FAFC10BD01680A6822F49072D5
:101E00000A6001688A6822F001028A60202180F855
:101E10006A10704710B501680A6822F040020A6033
:101E2000202180F86910FFF767FE002010BD10B573
:101E3000B0F85C2090F86A300168222B05D08869E0
:101E400040F008008861022010BD898C8368B3F5DA
:101E5000805F01D103696BB11140426D531C436532
:101E60001170B0F85A10491E0904090CA0F85A1054
:101E700007D015E0436D11401980416D891C416503
:101E8000EFE701680A6822F490720A6001688A68C4
:101E900022F001028A60202180F86A10FFF72BFEF1
:101EA000002010BD2DE9F041044610202369A268EE
:101EB000E6691A436369002133431A4323680D46D8
:101EC0001E68654F3E4016431E6022685368E668F0
:101ED00023F4405333435360236AA2691A432368AF
:101EE0009E6826F4306616439E605C4F22685C4B09
:101EF0000603BA420CD11B6B13F0030306D0012B6F
:101F00004DD0022B4DD0032B4CD146E0012049E0AF
:101F1000544FBA420CD11B6B13F440333BD0B34245
:101F20003DD0B3F5003F3CD0B3F5403F3AD134E06B
:101F30004D4FBA420DD11B6B13F440232BD0B3F598
:101F4000802F2CD0B3F5002F2BD0B3F5402F29D103
:101F500023E0464FBA420DD11B6B13F440131AD045
:101F6000B3F5801F1BD0B3F5001F1AD0B3F5401F87
:101F700018D112E03E4FBA4214D11B6B13F4400348
:101F800009D0B3F5800F0AD0B3F5000F09D0B3F52F
:101F9000400F07D101E0002004E0022002E004200D
:101FA00000E00820E7694FF400439F4227D1092849
:101FB0001ED2DFE800F00508131D161D1D1D1900B7
:101FC000FFF7D6F801E0FFF7EBF84100D4F8040082
:101FD00001EB5001B1FBF0F081B20AE025496068E5
:101FE000F6E7FFF7F5F8F0E7606806EB5001F1E778
:101FF000012521F00F00C1F3420108431CE009282C
:1020000025D2DFE800F005080B24102424241C004E
:10201000FFF7AEF809E0FFF7C3F806E0164960687D
:1020200001EB50010EE0FFF7D3F80146606801EBC9
:102030005001B1FBF0F080B22168C86008E0606830
:1020400003EB5001B1FBF0F080B2D06000E001255D
:102050002846BDE8F0810000F369FFEF0038014039
:10206000001002400044004000480040004C004086
:10207000005000400024F40000127A0090F869102B
:10208000212901D002207047B0F8521021B1816897
:10209000B1F5805F0BD00CE001680A6822F0800285
:1020A0000A600068016841F0400101600CE00169CC
:1020B00061B1C16C4A1CC26402680978A2F8281098
:1020C00030F8521F491E018000207047C16C026821
:1020D0000988C1F308011185C16C891CC164EFE74F
:1020E0002DE9F041984617460E460446069D1DE030
:1020F000681C1BD02DB1FEF7BBFDA0EB0800A84269
:1021000014D92068016821F4D071016020688168C9
:1021100021F001018160202084F8690084F86A00C0
:10212000002084F868000320BDE8F0812068C069C1
:1021300036EA000004D00020B842D9D00020F3E7EE
:102140000120F9E7FEE7000030B583B0044600F057
:1021500017F89FED090B05468DED000B0022214677
:102160006846FEF7A0F8284600F020F89DED000B29
:1021700003B030BD000000000000000000000000BF
:1021800001480068704700004000002002E008C8D5
:10219000121F08C1002AFAD170477047002001E0E1
:1021A00001C1121F002AFBD17047000001490860DD
:1021B000704700004000002030380A2801D201207A
:1021C00070470020704782B0CDE9000121F0004047
:1021D00001909DED000B02B051EC100B7047000018
:1021E0002DED028BFEF752FDFFF704FDFFF786FC95
:1021F000FFF7D4FC4FF4FA7A9FED688ADFED688A26
:10220000DFF8A091684C4FF480564FF090474FF4A0
:10221000006865495346082228316448FFF7F8FBF7
:1022200061482830FFF790FF51EC100BFEF703F8E0
:1022300000EE100A84ED060A606A0028E9D1B5EEC6
:10224000C00AF1EE10FA50D2207010EE100AFDF71D
:10225000DFFF41EC100BFFF7B6FF00EE100A002580
:10226000B8EEC00A84ED070A20EE080AC0EE280A7C
:10227000C4ED080A27E06068E060A1682161227867
:102280005140616058B3002161615140C2B2A16008
:1022900031463846FEF7E6FCE06810B300224146BE
:1022A0003846FEF7DFFC227C31464846FEF7DAFC72
:1022B0002069C0B1002241464846FEF7D3FC0A20FF
:1022C000FEF7D8FB6D1C00EE105AD4ED080AB8EEEC
:1022D000C00AB4EEE00AF1EE10FA9AD2CBE701217F
:1022E000D2E70122DBE70122E5E7B5EEC00AF1EE15
:1022F00010FA8EDD01202070D4ED070A10EE100ACE
:1023000060EE880A80EEA81A84ED081AFDF780FFB7
:1023100041EC100BFFF757FF00EE100A0025B8EE56
:10232000C00A84ED070A27E06068E060A1682161C7
:1023300022785140616058B3002161615140C2B2BE
:10234000A16031463846FEF78DFCE06810B30022EC
:1023500041463846FEF786FC227C31464846FEF769
:1023600081FC2069C0B1002241464846FEF77AFC54
:102370000A20FEF77FFB6D1C00EE105AD4ED080A10
:10238000B8EEC00AB4EEE00AF1EE10FAA5D2CBE73F
:102390000121D2E70122DBE70122E5E70000C84383
:1023A0000000B44300040048000000204400002066
:1023B00002030405060708090A0B0C0D0E0F101086
:1023C0000102030405060708090A0B0C0D0E0F1085
:1023D00000000000000000000102030406070809D5
:1023E0000000000001020304DDDDDDDDDCBBBBDD40
:1023F000DDDDDDDDDDDDDDDD9888888888888888A5
:1024000077777777778888888555555666666666C4
:1024100066666666666888888333333222222222A3
:10242000222222222228888D482400080000002031
:10243000440000008C2100088C2400084400002087
:10244000740400009C21000800000000000000004F
:10245000000000000000000000000000000000007C
:10246000000000000000000000000000000000006C
:10247000000000000000000001000000100000004B
:0C2480000000000000127A0000000000C4
:040000050800019559
:00000001FF
